{
  "contractName": "Faucet",
  "abi": [
    {
      "inputs": [],
      "name": "numOfFunders",
      "outputs": [
        {
          "internalType": "uint256",
          "name": "",
          "type": "uint256"
        }
      ],
      "stateMutability": "view",
      "type": "function",
      "constant": true
    },
    {
      "inputs": [],
      "name": "owner",
      "outputs": [
        {
          "internalType": "address",
          "name": "",
          "type": "address"
        }
      ],
      "stateMutability": "view",
      "type": "function",
      "constant": true
    },
    {
      "stateMutability": "payable",
      "type": "receive",
      "payable": true
    },
    {
      "inputs": [],
      "name": "addFunds",
      "outputs": [],
      "stateMutability": "payable",
      "type": "function",
      "payable": true
    },
    {
      "inputs": [],
      "name": "test1",
      "outputs": [],
      "stateMutability": "nonpayable",
      "type": "function"
    },
    {
      "inputs": [
        {
          "internalType": "uint256",
          "name": "withdrawAmount",
          "type": "uint256"
        }
      ],
      "name": "withdraw",
      "outputs": [],
      "stateMutability": "nonpayable",
      "type": "function"
    },
    {
      "inputs": [],
      "name": "getAllFunders",
      "outputs": [
        {
          "internalType": "address[]",
          "name": "",
          "type": "address[]"
        }
      ],
      "stateMutability": "view",
      "type": "function",
      "constant": true
    },
    {
      "inputs": [
        {
          "internalType": "uint8",
          "name": "index",
          "type": "uint8"
        }
      ],
      "name": "getFunderAtIndex",
      "outputs": [
        {
          "internalType": "address",
          "name": "",
          "type": "address"
        }
      ],
      "stateMutability": "view",
      "type": "function",
      "constant": true
    }
  ],
  "bytecode": "0x608060405234801561001057600080fd5b50336000806101000a81548173ffffffffffffffffffffffffffffffffffffffff021916908373ffffffffffffffffffffffffffffffffffffffff160217905550610989806100606000396000f3fe6080604052600436106100745760003560e01c80636fbbb55d1161004e5780636fbbb55d146100fd5780638da5cb5b14610128578063a26759cb14610153578063af7f2c9b1461015d5761007b565b80630a93cf33146100805780632e1a7d4d146100bd5780636b59084d146100e65761007b565b3661007b57005b600080fd5b34801561008c57600080fd5b506100a760048036038101906100a291906105d2565b610188565b6040516100b491906106e4565b60405180910390f35b3480156100c957600080fd5b506100e460048036038101906100df91906105a9565b6101c8565b005b3480156100f257600080fd5b506100fb61025f565b005b34801561010957600080fd5b506101126102ef565b60405161011f91906106ff565b60405180910390f35b34801561013457600080fd5b5061013d610435565b60405161014a91906106e4565b60405180910390f35b61015b610459565b005b34801561016957600080fd5b50610172610579565b60405161017f9190610761565b60405180910390f35b6000600360008360ff16815260200190815260200160002060009054906101000a900473ffffffffffffffffffffffffffffffffffffffff169050919050565b80670de0b6b3a7640000811115610214576040517f08c379a000000000000000000000000000000000000000000000000000000000815260040161020b90610721565b60405180910390fd5b3373ffffffffffffffffffffffffffffffffffffffff166108fc839081150290604051600060405180830381858888f1935050505015801561025a573d6000803e3d6000fd5b505050565b60008054906101000a900473ffffffffffffffffffffffffffffffffffffffff1673ffffffffffffffffffffffffffffffffffffffff163373ffffffffffffffffffffffffffffffffffffffff16146102ed576040517f08c379a00000000000000000000000000000000000000000000000000000000081526004016102e490610741565b60405180910390fd5b565b6060600060015467ffffffffffffffff811115610335577f4e487b7100000000000000000000000000000000000000000000000000000000600052604160045260246000fd5b6040519080825280602002602001820160405280156103635781602001602082028036833780820191505090505b50905060005b60015481101561042d576003600082815260200190815260200160002060009054906101000a900473ffffffffffffffffffffffffffffffffffffffff168282815181106103e0577f4e487b7100000000000000000000000000000000000000000000000000000000600052603260045260246000fd5b602002602001019073ffffffffffffffffffffffffffffffffffffffff16908173ffffffffffffffffffffffffffffffffffffffff168152505080806104259061080f565b915050610369565b508091505090565b60008054906101000a900473ffffffffffffffffffffffffffffffffffffffff1681565b6000339050600260008273ffffffffffffffffffffffffffffffffffffffff1673ffffffffffffffffffffffffffffffffffffffff16815260200190815260200160002060009054906101000a900460ff16610576576000600160008154809291906104c49061080f565b9190505590506001600260008473ffffffffffffffffffffffffffffffffffffffff1673ffffffffffffffffffffffffffffffffffffffff16815260200190815260200160002060006101000a81548160ff021916908315150217905550816003600083815260200190815260200160002060006101000a81548173ffffffffffffffffffffffffffffffffffffffff021916908373ffffffffffffffffffffffffffffffffffffffff160217905550505b50565b60015481565b60008135905061058e81610925565b92915050565b6000813590506105a38161093c565b92915050565b6000602082840312156105bb57600080fd5b60006105c98482850161057f565b91505092915050565b6000602082840312156105e457600080fd5b60006105f284828501610594565b91505092915050565b60006106078383610613565b60208301905092915050565b61061c816107c6565b82525050565b61062b816107c6565b82525050565b600061063c8261078c565b61064681856107a4565b93506106518361077c565b8060005b8381101561068257815161066988826105fb565b975061067483610797565b925050600181019050610655565b5085935050505092915050565b600061069c6021836107b5565b91506106a782610887565b604082019050919050565b60006106bf6021836107b5565b91506106ca826108d6565b604082019050919050565b6106de816107f8565b82525050565b60006020820190506106f96000830184610622565b92915050565b600060208201905081810360008301526107198184610631565b905092915050565b6000602082019050818103600083015261073a8161068f565b9050919050565b6000602082019050818103600083015261075a816106b2565b9050919050565b600060208201905061077660008301846106d5565b92915050565b6000819050602082019050919050565b600081519050919050565b6000602082019050919050565b600082825260208201905092915050565b600082825260208201905092915050565b60006107d1826107d8565b9050919050565b600073ffffffffffffffffffffffffffffffffffffffff82169050919050565b6000819050919050565b600060ff82169050919050565b600061081a826107f8565b91507fffffffffffffffffffffffffffffffffffffffffffffffffffffffffffffffff82141561084d5761084c610858565b5b600182019050919050565b7f4e487b7100000000000000000000000000000000000000000000000000000000600052601160045260246000fd5b7f43616e6e6f74207769746864726177206d6f7265207468616e2031206574686560008201527f7200000000000000000000000000000000000000000000000000000000000000602082015250565b7f4f6e6c79206f776e65722063616e2063616c6c20746869732066756e6374696f60008201527f6e00000000000000000000000000000000000000000000000000000000000000602082015250565b61092e816107f8565b811461093957600080fd5b50565b61094581610802565b811461095057600080fd5b5056fea2646970667358221220cb4c89de8cf31c9fa074913896f21b98755d2f07ea12c56ef5cbbc899ef4e1c364736f6c63430008040033",
  "immutableReferences": {},
  "source": "// SPDX-License-Identifier: MIT\r\npragma solidity >=0.4.22 <0.9.0;\r\n\r\nimport \"./Owned.sol\";\r\n\r\ncontract Faucet is Owned{\r\n\r\n    uint public numOfFunders;\r\n    mapping(address => bool) private funders;\r\n    mapping(uint => address) private lutFunders;\r\n\r\n\r\n    modifier limitWithdraw(uint withdrawAmount){\r\n        require(withdrawAmount <= 1000000000000000000 , \"Cannot withdraw more than 1 ether\");\r\n        _; \r\n    }\r\n\r\n    receive() external payable {}\r\n\r\n    function addFunds() external payable{\r\n        \r\n        address funder =  msg.sender;\r\n\r\n        if(!funders[funder]){\r\n            uint index = numOfFunders++;\r\n            funders[funder] = true;\r\n            lutFunders[index] = funder;\r\n        }\r\n    }\r\n\r\n    function test1() external onlyOwner {\r\n        \r\n    }\r\n\r\n    function withdraw(uint withdrawAmount) external limitWithdraw(withdrawAmount) {\r\n        payable(msg.sender).transfer(withdrawAmount);\r\n\r\n    }\r\n\r\n    function getAllFunders() external view returns(address[] memory){\r\n        address[] memory _funders = new address[](numOfFunders);\r\n\r\n        for(uint i=0;i<numOfFunders;i++){\r\n            _funders[i] = lutFunders[i];\r\n        }\r\n        return _funders;\r\n    }\r\n\r\n    function getFunderAtIndex(uint8 index) external view returns(address){\r\n        return lutFunders[index];\r\n    }\r\n}\r\n\r\n\r\n//const instance = await Faucet.deployed()\r\n//instance.addFunds({from:accounts[0],value:\"20000000000000\"})\r\n//instance.addFunds({from:accounts[1],value:\"20000000000000\"})\r\n//instance.withdraw(\"5000000000000000\",{from:accounts[1]})\r\n",
  "sourcePath": "D:\\Users\\yatin\\blockchain\\faucet\\contracts\\FaucetContract.sol",
  "compiler": {
    "name": "solc",
    "version": "0.8.4+commit.c7e474f2.Emscripten.clang"
  },
  "schemaVersion": "3.4.3",
  "updatedAt": "2021-12-18T11:03:39.529Z",
  "networkType": "ethereum",
  "devdoc": {
    "kind": "dev",
    "methods": {},
    "version": 1
  },
  "userdoc": {
    "kind": "user",
    "methods": {},
    "version": 1
  }
}